:020000040000FA
:0400000080312B28F8
:100008007E1480310B1F09280A2829284E01191E41
:100018000E280F281A280F1E122813281A28410103
:100028006E088A006D080A0080312928991E1D284B
:100038001E2829288F1E21282228292841016C08DA
:100048008A006B080A00803129287E100900803157
:100058002D288731FE278031EF00683084008730F3
:100068008500CA308600003087001B308F3170272A
:10007800803153308400853085002030860001307F
:10008800870036308F3170278031FC01673084005B
:100098000030850008308F316A278031A030840015
:1000A800003085002A308F316A278031A0308400E3
:1000B800013085003E308F316A2780317E10400143
:1000C8008331D32B4001E4006408F1000130F200D1
:1000D80087319D278031710840016407D10051089C
:1000E800FF3E86000130870081016408013ED1008F
:1000F8005108DC0064088600013087006130010681
:10010800031D87288828FC28523086000030870085
:100118000830D10000301E00D10B8F28DA01DB0136
:100128002A30A3009030A4005C0884314724803131
:100138004001D1005108DD00D7285D08833125230F
:10014800803178084001DF007708DE00DF1BAD282A
:10015800AE28BB285F08803AD10084305102031DC5
:10016800B72800305E02031CBA28BB28BE2840010D
:10017800DE01DF0140015A35523E860087015E08E4
:10018800C03F5F08C13F0130DA070030DB3D2A304D
:10019800A3009030A400003084314724803140010E
:1001A800D1005108DD005D08031DDB28DC28A128EB
:1001B8005308F2005208F1008F31EA2780314001DC
:1001C8005508F2005408F1008F31D42780314001DE
:1001D8005708F2005608F1008F31BE2780314001E0
:1001E8005908F2005808F1008F31A82780319C295E
:1001F8005C0883312523803178084001E1007708C5
:10020800E000E11F082909290B29E001E101610843
:10021800803AD10084305102031D14290030600255
:10022800031C172918291D29FF304001E00003305D
:10023800E10040016108E3006008E2000430630265
:10024800003003196202031C2A292B292D29E201F7
:10025800E301640886000130870077300106031D3A
:10026800362937293F296308F2006208F1008F31E7
:10027800A82780319C2964088600013087006230F5
:100288000106031D4829492951296308F20062081B
:10029800F1008F31BE2780319C2964088600013027
:1002A800870067300106031D5A295B296329630803
:1002B800F2006208F1008F31D42780319C2964084C
:1002C80086000130870072300106031D6C296D29F4
:1002D80075296308F2006208F1008F31EA2780313E
:1002E8009C29640886000130870076300106031DCA
:1002F8007E297F298B291D30C9009030CA00003023
:10030800CB009030CC008F31962780319C2964082F
:1003180086000130870066300106031D942995295F
:100328009C29E730C9008730CA008F319627803171
:1003380008004001B000DC3086000030870025301E
:100348008400003085000730A20016001A00A20BB6
:10035800A9292108B2002008B10031083204031D80
:10036800B629B729BB292530B1000030B2003208C0
:10037800F2003108F10087319D2781317208400170
:10038800B6007108B500410145084001B4004101BB
:1003980044084001B300B41BD229D329E729340803
:1003A800803AA2003608803A2202031DDD2935086A
:1003B8003302031CE029E129E229E7294001340836
:1003C800B6003308B50040013608B4003508B3005C
:1003D800410143084001AF00410142084001AE001D
:1003E80041014618F829F9291A2A0B2A2030F40065
:1003F8000030F50040013008A2002208F6008431E0
:10040800DB24813101304001B5070030B63D4001A1
:100418003608803AA2002F08803A2202031D162AC5
:100428002E083502031C192A1A2AFA294001AC01A0
:10043800AD013A2A400131088400320885000008DD
:10044800A200A3012208F4002308F5003008A40044
:100458002408F6008431DB24813101304001B107E2
:100468000030B23D0130AC070030AD3D2D08803A78
:10047800A2003408803A2202031D442A33082C02C1
:10048800031C472A482A1E2A4101461C4C2A4D2A89
:100498006E2A5F2A2030F4000030F5004001300851
:1004A800A2002208F6008431DB24813101304001AA
:1004B800B5070030B63D40013608803AA2002F0843
:1004C800803A2202031D6A2A2E083502031C6D2A6F
:1004D8006E2A4E2A40013608A1003508A0000800FF
:1004E8004001C000370886008701403FB900413FFE
:1004F800BA00390884003A0885001200253A031D1D
:10050800862A872A012B3708860087010130810750
:1005180041310318810A4101C201C301C601C70163
:10052800FF30C400FF30C50040013708860087014E
:10053800403FB900413FBA00390884003A088500B5
:100548001200733A031DA92AAA2ACC2A3708860062
:1005580087010130810741310318810A3808860074
:10056800870101088400850102308107003FBE0031
:10057800013FBF003F08A1003E08A00040088131AC
:100588009D21823140012108B8002008B700242BA2
:10059800370886008701403FB900413FBA00390853
:1005A80084003A0885001200253A031DDC2ADD2A5A
:1005B800F62A370886008701013081074131031880
:1005C800810A2530F4000030F5004008B9003908E8
:1005D800F6008431DB24823101304001B70000305D
:1005E800B800242B37088600870101308107413184
:1005F8000318810AB701B801242B37088600870140
:10060800403FB900413FBA00390884003A088500E4
:100618000008BB00BC013B08F4003C08F50040089A
:10062800BD003D08F6008431DB24823140013708E3
:10063800860087010130810741310318810AF02AB9
:1006480008004001AD00AB01AC01A401A501302BAD
:100658000130A0002008AD07AA01AA0A2D088600CB
:10066800013087002030010603193B2B3C2B512B0E
:100678002D088600013087000108F73EA000FF30F2
:1006880003180030A10000302102053003192002B0
:10069800031C4F2B502B512BAA012A08A000A101A3
:1006A8002008A6002108A70026082704031D5D2BA3
:1006B8005E2B2C2B682B0130A4000030A5000130E4
:1006C800A0002008AD079A2B2D088600013087006E
:1006D8000108A000A1012108003A0319742B9A2BE4
:1006E80020082B3A0319632B063A03195F2B9A2B20
:1006F8002D088600013087002C08F2002B08F10035
:100708000A30F3000030F40087310F278331720874
:100718004001A10001087102A000031CA1032008E8
:10072800303EAB000030213DAC00632B2D08860025
:10073800013087000108D03EA000FF3003180030C8
:10074800A100003021020A3003192002031CAD2B3E
:10075800AF2B0130B02B0030A200A3012208A80063
:100768002308A90028082904031DBB2BBC2B7C2BBC
:1007780024082504031DC12BC22BCE2B2B09A00056
:100788002C09A100A00A0319A10A2008F7002108D2
:10079800F800D22B2C08F8002B08F7000800873146
:1007A8004C2783318B170B174201D6018731B627A7
:1007B80083310B304001E6002630E5005D30890BBF
:1007C800E32BE50BE32BE60BE32B00320030400173
:1007D800A000A1000030A200A300E830A40003306C
:1007E800A5000030A600A7008631CD2683318F31C1
:1007F8002A2783314001E5006508E9000A306906C7
:100808000319072C082C252C0D30690603190D2C0B
:100818000E2C252C6908E50042015608C03E8600CA
:10082800013087004001650881000130E500650856
:100838004201D6071F305602031C232C242C252CDA
:10084800D601243040016906031D2B2C2C2CFB2BD0
:1008580042015608C03E8600013087008101D6015A
:1008680010304001C9009030CA00C030CB000130C0
:10087800CC008F3196278331C03080316620833198
:10088800FB2B80312B284001A8002808031D4D2C84
:100898004E2C592C6708A5002508A8002808031D18
:1008A800562C572C592C0030992C2408F900230871
:1008B800F800280885318925843178084001A50089
:1008C8002508A80728088600013087000108031DAD
:1008D8006E2C6F2C722CE7010030992C2408F9003B
:1008E8002308F80028088531BE258431780840019E
:1008F800A5007908A60028082507A7002708E7000B
:100908006708860001308700010803198C2C8D2C9C
:10091800972C670886000130870081010130A50007
:100928002508E707982CE701280808004E019912C6
:100938001A30F1000530F2008F31402784314E0122
:100948001912A930F1000630F2008F3146278431A0
:10095800093042019F0090309D0024309E002230D3
:100968009B009C01FF30F1000730F2008F313427E3
:1009780084312630F1000F30F2008F313A2784316C
:100988002230F1000F30F2008F312E2784314001E0
:10099800EA01EE01ED010830F30073084101EF00B0
:1009A800FC014001EC01EB014E01991608007608A4
:1009B8000319DF2CE02CE52C7608031DE42CE52C2C
:1009C800EA2C74088F3164278431192D7608033E88
:1009D80086008701160001040319F32CF42C112D4D
:1009E8007608033E86008701403FF700413FF80044
:1009F800760A86008701403FF900413FFA007A08ED
:100A0800803AFB007808803A7B02031D0D2D770899
:100A180079020318102D112D192D760A86008701E9
:100A28000130810741310318810A08007C08A83E7B
:100A380086008701810142011D1D232D242D2F2DA4
:100A48007C08A83E86008701811441016A088A0053
:100A580069080A00853142019D1C332D342D3F2D34
:100A68007C08A83E860087010115410168088A00B4
:100A780067080A0085317C08A83E860087010108BE
:100A88000319472D482D4F2D410166088A00650836
:100A98000A008531522D87318327853108000034BB
:100AA800003400340034003400340034003400349E
:100AB80000340034003400340034E83403340034A3
:100AC80000340034003400340034E8340334803413
:100AD80000348034003440340034003402340034AC
:100AE80000340034003400340034E8340334003473
:100AF80000340034023480340034FF3400340034CD
:100B0800003400340034003400344001A200A00155
:100B1800A101972D0130FA007A084001A20701309F
:100B2800A0070030A13D2208860001308700010897
:100B380003199F2DA02DB82D7908F2007808F1002F
:100B480022088600013087000108FA00FB017A08B4
:100B5800F3007B08F40087312E2785317108720471
:100B6800031DB72DB82D8E2D40012108F90020084E
:100B7800F80008004001A200A001A101CC2D01301D
:100B8800FA007A084001A2070130A0070030A13D11
:100B9800220886000130870001080319D42DD52DBD
:100BA800ED2D7908F2007808F1002208860001305E
:100BB80087000108FA00FB017A08F3007B08F400BB
:100BC80087312E278531710872040319EC2DED2D1C
:100BD800C32D40012108F9002008F8000800400151
:100BE800C6004208C8004108C7004101C001C10150
:100BF800112E4730C4004408B7004308C500450813
:100C0800B800460882317422853140013708410115
:100C1800C007400138084101C13D40014708840030
:100C2800480885001200031D1A2E1B2EFD2D4101B8
:100C380041084001C200410140084001C1000800CC
:100C480020304001980099019A01373092007030A5
:100C58009300E4309400FF307E01CE00D030C30012
:100C68001730B800C401B901CF01BA01C501D001DC
:100C78001F30BB00C6013F30D1003F30BC00C70168
:100C88003F30D2000B30A0000D30A3000F309F0082
:100C98000C30A1000E30A4000D307D01CB000800FF
:100CA800F20041016F0803195A2E5B2E552E4E0192
:100CB800191A5F2E602E642E720842019A007C2E4B
:100CC80019127208F10040016E08B83E86008701CB
:100CD800710881000130F1007108EE0708306E02DA
:100CE800031C772E782E792EEE0101304101EF0298
:100CF8004E011916080040016B080319842E852E31
:100D08007F2E6C08A83E860087010108F100710853
:100D1800EA006C08B03E860087010108F1007108FE
:100D2800F2000130F1007108EC0708306C02031C76
:100D38009E2E9F2EA02EEC014E01991201304001EB
:100D4800EB024E01991672080800083041016F0243
:100D58000318AF2EB02ECA2E40016D08B83E86008B
:100D68008701010842019A000130F0007008400133
:100D7800ED0708306D02031CC22EC32EC42EED01F0
:100D88000130F00070084101EF07CC2E4E01191216
:100D9800080040012108F2002008F1008F31EA27FD
:100DA800863140012308F2002208F1008F31D42750
:100DB800863140012508F2002408F1008F31BE2752
:100DC800863140012708F2002608F1008F31A82754
:100DD80086310800F501F50A2030710672040319FE
:100DE800F62EF72E072F7108F73EF300FF30723DFD
:100DF800F40000307402053003197302031C052F38
:100E0800062F072FF5017508F300F4017308F100A8
:100E18007408F2000800F501F601711C142F152F53
:100E2800192F7308F5077408F63D0130F335F40DF2
:100E3800890B1A2F0130F236F10C890B1F2F71081C
:100E48007204031D282F292F112F7608F200750828
:100E5800F100080071088400720885000008730614
:100E6800031D372F382F392F4B2F7208F6007108C2
:100E7800F500F10A0319F20A75088400760885005E
:100E88001200031D482F492F2E2FF101F2010800EF
:100E98008F31762787318631242687318F317E2717
:100EA80087318F315E2787318F31522787318F31D4
:100EB8004C2787318F31582787318F3188278731E1
:100EC80084319A2487310800E8340334003400342C
:100ED8000034003400340034003402340034023466
:100EE80000340234003400340034003428346E34C2
:100EF80075346C346C3429340034083400344201BD
:100F08001908F0007C08B03E86008701700881004F
:100F18000130F0007008FC0708307C02031C952F94
:100F2800962F972FFC010130F00070084001EB0765
:100F380008007208F5007108F400A62F0130F107C7
:100F48000030F23D71088400720885001200031D0C
:100F5800AE2FAF2FA22F74087102F1007508723BF3
:100F6800F2000800F201F3017208B03E8600870122
:100F780081010130F2070030F33D7308803AF10037
:100F880080307102031DCA2F08307202031CCD2F56
:100F9800CE2FB82F08007108D03EF300FF30723D05
:100FA800F400003074020A3003197302031CDD2FA9
:100FB800DF2F0130E02F0030F500F6017508F10051
:100FC8007608F200080066346C347534733468347B
:100FD80020346234753466346634653472342034AF
:100FE8007234653463346534693476346534643412
:080FF8000A3400340134080042
:101E4400873183278F31080042011D121D160800B7
:101E540086317F268F31080072084101E60071083F
:101E6400E500080072084101EA007108E900080071
:101E740072084101E8007108E70008007208410196
:101E8400EC007108EB00080072084101EE007108D3
:101E9400ED00080080304601960095019401080089
:101EA400803046019A00990198010800803046016B
:101EB4009E009D019C010800803047018E008D0129
:101EC4008C010800F3007308863154268F31080012
:101ED400640080010131890B6B2F0034FE00120075
:101EE4001E00FE0B712F00344F01960197019801DB
:101EF40099019A019B010800603051018D008F0106
:101F040091010530930090019201080001304501D0
:101F140090008F0191019F308D008C014E01901033
:101F2400803045018E0008004B304001CD004D0843
:101F3400D0004A08C2004908C1005030CD004D0805
:101F4400C30000308531F3258F3108007208F40096
:101F54007108F300F436F30CF436F30C73084601FD
:101F6400950071080339F3000530F335FF3E031D76
:101F7400B72F7335940008007208F4007108F30059
:101F8400F436F30CF436F30C730846019900710827
:101F94000339F3000530F335FF3E031DCD2F7335B0
:101FA400980008007208F4007108F300F436F30C8A
:101FB400F436F30C730846019D0071080339F300ED
:101FC4000530F335FF3E031DE32F73359C000800F5
:101FD4007208F4007108F300F436F30CF436F30CD1
:101FE400730847018D0071080339F3000530F33598
:101FF400FF3E031DF92F73358C000800763431340D
:102004002E3430342E3430342034313432342D34C0
:10201400313432342D343234333400347234653450
:102024006334653469347634653464343A34203442
:10203400253473340034763465347234733469343B
:102044006F346E3420343D342034253473340034FA
:042054002C340034F4
:020000040001F9
:0A000E00EC3FFF3F9F3FFF3FFF3F25
:00000001FF
